:100000000C945E000C9486000C9486000C94860080
:100010000C9486000C9486000C9486000C94860048
:100020000C9486000C9486000C9486000C94860038
:100030000C9486000C9486000C9486000C94860028
:100040000C94EE020C9486000C94BC020C94960264
:100050000C9486000C9486000C9486000C94860008
:100060000C9486000C948600000000080002010039
:100070000003040700000000000000000000000072
:10008000250028002B0000000000240027002A0083
:10009000040404040404040402020202020203032E
:1000A0000303030301020408102040800102040836
:1000B00010200102040810203803C20411241FBEBE
:1000C000CFEFD8E0DEBFCDBF22E0A2EDB1E001C0AE
:1000D0001D92A238B207E1F711E0A0E0B1E0EEE432
:1000E000FEE002C005900D92A23DB107D9F710E0E5
:1000F000CDE5D0E004C02197FE010E94FF04CC357D
:10010000D107C9F70E9473030C941A070C940000DE
:1001100090E0FC01EC55FF4F2491FC01E057FF4FAC
:100120008491882399F090E0880F991FFC01EA5789
:10013000FF4FA591B491FC01E458FF4F8591949134
:100140008FB7F894EC91E22BEC938FBF0895CF9288
:10015000DF92EF92FF920F931F93CF93DF936C0187
:100160007A018B01C0E0D0E0CE15DF0589F0D8011F
:100170006D918D01D601ED91FC910190F081E02D02
:10018000C6010995892B11F47E0102C02196ECCF9E
:10019000C701DF91CF911F910F91FF90EF90DF90FA
:1001A000CF900895089580E090E00895FC01538D6C
:1001B000448D252F30E0842F90E0821B930B541741
:1001C00010F0CF96089501970895FC01918D828DCE
:1001D000981761F0828DDF01A80FB11D5D968C919B
:1001E000928D9F5F9F73928F90E008958FEF9FEFA6
:1001F0000895FC01918D828D981731F0828DE80F62
:10020000F11D858D90E008958FEF9FEF0895FC011B
:10021000918D228D892F90E0805C9F4F821B9109E8
:100220008F73992708958BED91E00E94070121E0DB
:10023000892B09F420E0822F0895FC01848DDF01D1
:10024000A80FB11DA35ABF4F2C91848D90E0019649
:100250008F739927848FA689B7892C93A089B18938
:100260008C9180648C93938D848D981306C0028842
:10027000F389E02D80818F7D80830895EF92FF9236
:100280000F931F93CF93DF93EC0181E0888F9B8DB9
:100290008C8D981305C0E889F989808185FD24C07B
:1002A000F62E0B8D10E00F5F1F4F0F731127E02EFE
:1002B0008C8DE8120CC00FB607FCFACFE889F989DB
:1002C000808185FFF5CFCE010E941D01F1CF8B8D7E
:1002D000FE01E80FF11DE35AFF4FF0820B8FEA8910
:1002E000FB898081806207C0EE89FF896083E8898D
:1002F000F98980818064808381E090E0DF91CF91F3
:100300001F910F91FF90EF900895CF93DF93EC0131
:10031000888D8823C9F0EA89FB89808185FD05C025
:10032000A889B9898C9186FD0FC00FB607FCF5CF5F
:10033000808185FFF2CFA889B9898C9185FFEDCFA7
:10034000CE010E941D01E7CFDF91CF91089580E09B
:1003500090E0892B29F00E94130181110C94000078
:10036000089590E0FC01E859FF4F3491FC01EC55F1
:10037000FF4F2491FC01E057FF4FE491EE2309F475
:100380003BC0332339F1333091F038F43130A9F0E8
:10039000323001F584B58F7D12C0373091F038309E
:1003A000A1F03430B9F4809180008F7D03C080913A
:1003B00080008F77809380000DC084B58F7784BDD7
:1003C00009C08091B0008F7703C08091B0008F7D0D
:1003D0008093B000F0E0EE0FFF1FE458FF4FA591AF
:1003E000B4918FB7F894EC91611103C020952E233E
:1003F00001C02E2B2C938FBF08953FB7F8948091A6
:10040000D7019091D801A091D901B091DA0126B518
:10041000A89B05C02F3F19F00196A11DB11D3FBF3C
:10042000BA2FA92F982F8827820F911DA11DB11DCA
:10043000BC01CD0142E0660F771F881F991F4A95C6
:10044000D1F70895FC0180917C0290917D02892B67
:1004500021F421E0309749F413C080917802909103
:100460007902309731F421E0FC018081882341F04A
:1004700006C0BF010E940A0721E0892B09F020E095
:10048000822F08950E94FC060F931F93CF93DF9352
:10049000EC0188819981009729F02A813B812617F8
:1004A000370788F48B016F5F7F4F0E9432060097F9
:1004B00061F0998388831B830A832C813D81232BE0
:1004C00011F4FC01108281E001C080E0DF91CF9146
:1004D0001F910F910895EF92FF920F931F93CF9367
:1004E000DF93EC017B018A01BA010E94440228815A
:1004F000398181110DC02115310519F0C9010E9402
:100500009A05198218821D821C821B821A8206C0DB
:100510001D830C83B701C9010E941307CE01DF912F
:10052000CF911F910F91FF90EF9008951F920F921E
:100530000FB60F9211242F933F934F935F936F93B6
:100540007F938F939F93AF93BF93EF93FF938BED25
:1005500091E00E941D01FF91EF91BF91AF919F919A
:100560008F917F916F915F914F913F912F910F905C
:100570000FBE0F901F9018951F920F920FB60F92FB
:1005800011242F938F939F93EF93FF93E091EB01AF
:10059000F091EC018081E091F101F091F20182FD96
:1005A00012C090818091F4018F5F8F732091F501CB
:1005B000821751F0E091F401F0E0E552FE4F958F83
:1005C0008093F40101C08081FF91EF919F918F9101
:1005D0002F910F900FBE0F901F9018951F920F92A2
:1005E0000FB60F9211242F933F938F939F93AF9346
:1005F000BF938091D3019091D401A091D501B09186
:10060000D6013091D20123E0230F2D3720F401963B
:10061000A11DB11D05C026E8230F0296A11DB11D25
:100620002093D2018093D3019093D401A093D5015C
:10063000B093D6018091D7019091D801A091D901B2
:10064000B091DA010196A11DB11D8093D70190935D
:10065000D801A093D901B093DA01BF91AF919F91D6
:100660008F913F912F910F900FBE0F901F90189573
:10067000EBEDF1E01382128288EE93E0A0E0B0E0AF
:1006800084839583A683B7838AE091E091838083F6
:1006900085EC90E09587848784EC90E09787868747
:1006A00080EC90E0918B808B81EC90E0938B828B3F
:1006B00082EC90E0958B848B86EC90E0978B868B18
:1006C000118E128E138E148EE8E7F2E011821082E2
:1006D000138212821582148240E050E06AE171E0D8
:1006E000CF010C946B02CF93DF9300D0CDB7DEB770
:1006F000789484B5826084BD84B5816084BD85B5FD
:10070000826085BD85B5816085BD80916E00816008
:1007100080936E00109281008091810082608093AE
:1007200081008091810081608093810080918000B0
:100730008160809380008091B10084608093B100DB
:100740008091B00081608093B00080917A008460D5
:1007500080937A0080917A00826080937A00809101
:100760007A00816080937A0080917A00806880931B
:100770007A001092C100E091EB01F091EC0182E06F
:100780008083E091E701F091E8011082E091E901B6
:10079000F091EA018FEC80831092F301E091EF0178
:1007A000F091F00186E08083E091ED01F091EE019F
:1007B000808180618083E091ED01F091EE01808184
:1007C00088608083E091ED01F091EE018081806886
:1007D0008083E091ED01F091EE0180818F7D808337
:1007E00086E00E94880085E00E94880084E00E94E4
:1007F00088008BED91E00E940701892B09F44FC01E
:100800000E94FD014B015C0183E0C82ED12CE12C3C
:10081000F12C0E94FD01DC01CB0188199909AA097C
:10082000BB09883E9340A105B10558F021E0C21AEA
:10083000D108E108F10888EE880E83E0981EA11C1B
:10084000B11CC114D104E104F10419F78BED91E05E
:100850000E94E50089831A82E0907C02F0907D027C
:100860008FEFE81AF80AB70188E792E00E94440285
:10087000882309F4BECF20917802309179028091CB
:100880007C0290917D02BE016F5F7F4F820F931FAC
:100890000E941307F0927D02E0927C02AACF409161
:1008A0007C0250917D024115510509F468C06091A8
:1008B0007802709179028BED91E00E94A70042E0EE
:1008C00050E068E171E08BED91E00E94A7008BE1C0
:1008D00091E00E942202811136C085E391E00E94DE
:1008E0002202811140C080E591E00E94220288230B
:1008F00011F061E007C087E691E00E9422028823A0
:1009000019F060E085E031C08FE791E00E9422029B
:10091000882311F061E007C083EA91E00E9422027F
:10092000882319F060E084E020C080EB91E00E9411
:100930002202882351F061E084E00E94B10161E06D
:1009400085E00E94B10161E00FC08FEB91E00E9451
:100950002202882361F060E084E00E94B10160E03F
:1009600085E00E94B10160E086E00E94B10140E0B4
:1009700050E06AE171E088E792E00E946B020E9419
:10098000A70137CF80917802909179020C949A0553
:100990002F923F924F925F926F927F928F929F928F
:1009A000AF92BF92CF92DF92EF92FF920F931F937D
:1009B000CF93DF93CDB7DEB7CA1BDB0B0FB6F8942E
:1009C000DEBF0FBECDBF09942A88398848885F846E
:1009D0006E847D848C849B84AA84B984C884DF80DF
:1009E000EE80FD800C811B81AA81B981CE0FD11DC3
:1009F0000FB6F894DEBF0FBECDBFED010895EE0F28
:100A0000FF1F0590F491E02D0994CF93DF9382307E
:100A1000910510F482E090E0E0918002F091810273
:100A200020E030E0C0E0D0E0309711F1408151810A
:100A300048175907C0F04817590761F4828193811C
:100A4000209719F09B838A832BC090938102809317
:100A5000800226C02115310519F04217530718F4FA
:100A60009A01BE01DF01EF010280F381E02DDCCFAE
:100A70002115310509F1281B390B2430310590F47B
:100A800012968D919C9113976115710521F0FB01D0
:100A90009383828304C09093810280938002FD013E
:100AA000329644C0FD01E20FF31F819391932250CF
:100AB00031092D933C933AC020917E0230917F0200
:100AC000232B41F4209102013091030130937F02E6
:100AD00020937E0220910001309101012115310502
:100AE00041F42DB73EB74091040150910501241BFC
:100AF000350BE0917E02F0917F02E217F307A0F43C
:100B00002E1B3F0B2817390778F0AC014E5F5F4F63
:100B10002417350748F04E0F5F1F50937F02409314
:100B20007E028193919302C0E0E0F0E0CF01DF917B
:100B3000CF9108950F931F93CF93DF93009709F4FC
:100B40008CC0FC01329713821282009180021091B6
:100B500081020115110581F420813181820F931FDB
:100B600020917E0230917F022817390779F5F093A2
:100B70007F02E0937E0271C0D80140E050E0AE17E2
:100B8000BF0750F412962D913C911397AD0121159A
:100B9000310509F1D901F3CF9D01DA0133832283B5
:100BA00060817181860F971F8217930769F4EC01AA
:100BB00028813981260F371F2E5F3F4F31832083D5
:100BC0008A819B8193838283452B29F4F093810250
:100BD000E093800242C01396FC93EE931297ED01CE
:100BE000499159919E01240F351FE217F30771F4C3
:100BF00080819181840F951F029611969C938E930C
:100C00008281938113969C938E931297E0E0F0E09B
:100C1000D80112968D919C911397009719F0F801C5
:100C20008C01F6CF8D919C9198012E5F3F4F820FE2
:100C3000931F20917E0230917F022817390769F4B3
:100C4000309729F4109281021092800202C0138220
:100C5000128210937F0200937E02DF91CF911F9149
:100C60000F910895A0E0B0E0E8E3F6E00C94CC0426
:100C7000EC01009721F4CB010E940505B8C0FC01EE
:100C8000E60FF71F9C0122503109E217F30708F421
:100C9000ACC0D9010D911C91119706171707B0F040
:100CA0000530110508F49FC0C801049786179707FF
:100CB00008F499C002501109061B170B01931193F8
:100CC0006D937C93CF010E949A058DC05B01A01AA1
:100CD000B10A4C01800E911EA0918002B091810258
:100CE00040E050E0E12CF12C109709F44AC0A8151F
:100CF000B905D1F56D907C901197630182E0C80E23
:100D0000D11CCA14DB0480F1A3014A195B096A01F2
:100D100082E0C80ED11C1296BC9012971396AC912B
:100D2000B5E0CB16D10440F0B282A3835183408357
:100D3000D9016D937C930AC00E5F1F4FC301800FD2
:100D4000911FF90191838083EB2DFA2FE114F104B7
:100D500031F0D7011396FC93EE93129744C0F093B1
:100D60008102E09380023FC08D919C9111974817BA
:100D7000590708F4AC017D0112960D90BC91A02D8D
:100D8000B3CF80917E0290917F0288159905E1F49E
:100D900046175707C8F48091000190910101009710
:100DA00041F48DB79EB74091040150910501841B19
:100DB000950BE817F907C8F4F0937F02E0937E02E1
:100DC000F901718360830FC0CB010E9405057C018E
:100DD000009759F0A801BE010E940107CE010E94B0
:100DE0009A05C70104C0CE0102C080E090E0CDB7F3
:100DF000DEB7EEE00C94E80481E090E0F8940C9407
:100E00001A07FB01DC0102C001900D9241505040D5
:100E1000D8F70895FB01DC018D9101908019011034
:100E2000D9F3990B0895FB01DC0101900D9200208C
:100E3000E1F7089510E0CDE5D0E004C0FE010E9486
:0E0E4000FF042196CE35D107C9F7F894FFCFF5
:100E4E00000082028000000000003E01A700D600D4
:100E5E0085010701E500F9000D0A00506C6561730C
:100E6E0065207475726E206F6E20746865206C69D3
:100E7E006768747300506C65617365207475726E6B
:100E8E00206F666620746865206C696768747300ED
:100E9E00506C65617365207475726E206F6E207470
:100EAE0068652066616E00506C65617365207475AF
:100EBE00726E206F6666207468652066616E0047EC
:100ECE006F6F64206576656E696E67207475726EDD
:100EDE00206F6E20746865206E69676874206C617F
:100EEE006D7000476F6F64206D6F726E696E670074
:100EFE004920616D206261636B20686F6D650050E3
:100F0E006C6561736520646973636F6E6E6563747F
:020F1E000000D1
:107E0000112484B714BE81FFF0D085E080938100F7
:107E100082E08093C00088E18093C10086E0809377
:107E2000C20080E18093C4008EE0C9D0259A86E02C
:107E300020E33CEF91E0309385002093840096BBD3
:107E4000B09BFECF1D9AA8958150A9F7CC24DD24C4
:107E500088248394B5E0AB2EA1E19A2EF3E0BF2EE7
:107E6000A2D0813461F49FD0082FAFD0023811F036
:107E7000013811F484E001C083E08DD089C08234E0
:107E800011F484E103C0853419F485E0A6D080C0E4
:107E9000853579F488D0E82EFF2485D0082F10E0AE
:107EA000102F00270E291F29000F111F8ED06801E7
:107EB0006FC0863521F484E090D080E0DECF843638
:107EC00009F040C070D06FD0082F6DD080E0C81688
:107ED00080E7D80618F4F601B7BEE895C0E0D1E017
:107EE00062D089930C17E1F7F0E0CF16F0E7DF06D8
:107EF00018F0F601B7BEE89568D007B600FCFDCFD4
:107F0000A601A0E0B1E02C9130E011968C91119780
:107F100090E0982F8827822B932B1296FA010C0160
:107F200087BEE89511244E5F5F4FF1E0A038BF0790
:107F300051F7F601A7BEE89507B600FCFDCF97BE46
:107F4000E89526C08437B1F42ED02DD0F82E2BD052
:107F50003CD0F601EF2C8F010F5F1F4F84911BD097
:107F6000EA94F801C1F70894C11CD11CFA94CF0C13
:107F7000D11C0EC0853739F428D08EE10CD085E9AC
:107F80000AD08FE07ACF813511F488E018D01DD067
:107F900080E101D065CF982F8091C00085FFFCCF94
:107FA0009093C60008958091C00087FFFCCF809118
:107FB000C00084FD01C0A8958091C6000895E0E648
:107FC000F0E098E1908380830895EDDF803219F02E
:107FD00088E0F5DFFFCF84E1DECF1F93182FE3DFCA
:107FE0001150E9F7F2DF1F91089580E0E8DFEE27F6
:047FF000FF270994CA
:027FFE00040479
:0400000300007E007B
:00000001FF
